{
  "_format": "hh-sol-artifact-1",
  "contractName": "StakingEther",
  "sourceName": "contracts/StakeEther.sol",
  "abi": [
    {
      "inputs": [],
      "stateMutability": "nonpayable",
      "type": "constructor"
    },
    {
      "inputs": [],
      "name": "getContractBalance",
      "outputs": [
        {
          "internalType": "uint256",
          "name": "",
          "type": "uint256"
        }
      ],
      "stateMutability": "view",
      "type": "function"
    },
    {
      "inputs": [],
      "name": "myBalance",
      "outputs": [
        {
          "internalType": "uint256",
          "name": "",
          "type": "uint256"
        }
      ],
      "stateMutability": "view",
      "type": "function"
    },
    {
      "inputs": [],
      "name": "myBalanceAndReward",
      "outputs": [
        {
          "internalType": "uint256",
          "name": "",
          "type": "uint256"
        },
        {
          "internalType": "uint256",
          "name": "",
          "type": "uint256"
        }
      ],
      "stateMutability": "view",
      "type": "function"
    },
    {
      "inputs": [
        {
          "internalType": "uint256",
          "name": "_durationInMinutes",
          "type": "uint256"
        }
      ],
      "name": "stakingEther",
      "outputs": [],
      "stateMutability": "payable",
      "type": "function"
    },
    {
      "inputs": [],
      "name": "stakingRewardPool",
      "outputs": [],
      "stateMutability": "payable",
      "type": "function"
    },
    {
      "inputs": [
        {
          "internalType": "uint256",
          "name": "_amount",
          "type": "uint256"
        }
      ],
      "name": "withdrawStakedEther",
      "outputs": [],
      "stateMutability": "nonpayable",
      "type": "function"
    }
  ],
  "bytecode": "0x608060405234801561001057600080fd5b50336000806101000a81548173ffffffffffffffffffffffffffffffffffffffff021916908373ffffffffffffffffffffffffffffffffffffffff160217905550611244806100606000396000f3fe6080604052600436106100555760003560e01c80633b4b4d8d1461005a57806348c271e8146100645780636f9fb98a146100905780637daf4eaf146100bb57806398ac6565146100d7578063c9116b6914610100575b600080fd5b61006261012b565b005b34801561007057600080fd5b50610079610254565b604051610087929190610b38565b60405180910390f35b34801561009c57600080fd5b506100a5610347565b6040516100b29190610b61565b60405180910390f35b6100d560048036038101906100d09190610bad565b6103de565b005b3480156100e357600080fd5b506100fe60048036038101906100f99190610bad565b610646565b005b34801561010c57600080fd5b506101156109b3565b6040516101229190610b61565b60405180910390f35b60008054906101000a900473ffffffffffffffffffffffffffffffffffffffff1673ffffffffffffffffffffffffffffffffffffffff163373ffffffffffffffffffffffffffffffffffffffff16146101b9576040517f08c379a00000000000000000000000000000000000000000000000000000000081526004016101b090610c37565b60405180910390fd5b600034116101fc576040517f08c379a00000000000000000000000000000000000000000000000000000000081526004016101f390610ca3565b60405180910390fd5b34600260003073ffffffffffffffffffffffffffffffffffffffff1673ffffffffffffffffffffffffffffffffffffffff168152602001908152602001600020600082825461024b9190610cf2565b92505081905550565b6000806000600160003373ffffffffffffffffffffffffffffffffffffffff1673ffffffffffffffffffffffffffffffffffffffff1681526020019081526020016000206040518060800160405290816000820160009054906101000a900473ffffffffffffffffffffffffffffffffffffffff1673ffffffffffffffffffffffffffffffffffffffff1673ffffffffffffffffffffffffffffffffffffffff16815260200160018201548152602001600282015481526020016003820160009054906101000a900460ff16151515158152505090506000610335336109fd565b90508160200151819350935050509091565b60008060009054906101000a900473ffffffffffffffffffffffffffffffffffffffff1673ffffffffffffffffffffffffffffffffffffffff163373ffffffffffffffffffffffffffffffffffffffff16146103d8576040517f08c379a00000000000000000000000000000000000000000000000000000000081526004016103cf90610c37565b60405180910390fd5b47905090565b600073ffffffffffffffffffffffffffffffffffffffff163373ffffffffffffffffffffffffffffffffffffffff160361044d576040517f08c379a000000000000000000000000000000000000000000000000000000000815260040161044490610d72565b60405180910390fd5b60003411610490576040517f08c379a000000000000000000000000000000000000000000000000000000000815260040161048790610ca3565b60405180910390fd5b600081116104d3576040517f08c379a00000000000000000000000000000000000000000000000000000000081526004016104ca90610dde565b60405180910390fd5b6000600160003373ffffffffffffffffffffffffffffffffffffffff1673ffffffffffffffffffffffffffffffffffffffff1681526020019081526020016000209050600081600101541461055d576040517f08c379a000000000000000000000000000000000000000000000000000000000815260040161055490610e4a565b60405180910390fd5b6000603c8361056c9190610e6a565b9050338260000160006101000a81548173ffffffffffffffffffffffffffffffffffffffff021916908373ffffffffffffffffffffffffffffffffffffffff16021790555034826001018190555080426105c69190610cf2565b826002018190555060008260030160006101000a81548160ff02191690831515021790555034600260003373ffffffffffffffffffffffffffffffffffffffff1673ffffffffffffffffffffffffffffffffffffffff168152602001908152602001600020600082825461063a9190610cf2565b92505081905550505050565b60008111610689576040517f08c379a000000000000000000000000000000000000000000000000000000000815260040161068090610ef8565b60405180910390fd5b6000600160003373ffffffffffffffffffffffffffffffffffffffff1673ffffffffffffffffffffffffffffffffffffffff16815260200190815260200160002090508060020154421015610713576040517f08c379a000000000000000000000000000000000000000000000000000000000815260040161070a90610f64565b60405180910390fd5b8060030160009054906101000a900460ff1615610765576040517f08c379a000000000000000000000000000000000000000000000000000000000815260040161075c90610fd0565b60405180910390fd5b81816001015410156107ac576040517f08c379a00000000000000000000000000000000000000000000000000000000081526004016107a39061103c565b60405180910390fd5b60006107b7336109fd565b90506000826001015484836107cc9190610e6a565b6107d6919061108b565b846107e19190610cf2565b905080600260003073ffffffffffffffffffffffffffffffffffffffff1673ffffffffffffffffffffffffffffffffffffffff168152602001908152602001600020541015610865576040517f08c379a000000000000000000000000000000000000000000000000000000000815260040161085c90611108565b60405180910390fd5b838360010160008282546108799190611128565b9250508190555060008360010154036108aa5760018360030160006101000a81548160ff0219169083151502179055505b80600260003073ffffffffffffffffffffffffffffffffffffffff1673ffffffffffffffffffffffffffffffffffffffff16815260200190815260200160002060008282546108f99190611128565b9250508190555060003373ffffffffffffffffffffffffffffffffffffffff16826040516109269061118d565b60006040518083038185875af1925050503d8060008114610963576040519150601f19603f3d011682016040523d82523d6000602084013e610968565b606091505b50509050806109ac576040517f08c379a00000000000000000000000000000000000000000000000000000000081526004016109a3906111ee565b60405180910390fd5b5050505050565b6000600160003373ffffffffffffffffffffffffffffffffffffffff1673ffffffffffffffffffffffffffffffffffffffff16815260200190815260200160002060010154905090565b600080600160008473ffffffffffffffffffffffffffffffffffffffff1673ffffffffffffffffffffffffffffffffffffffff1681526020019081526020016000206040518060800160405290816000820160009054906101000a900473ffffffffffffffffffffffffffffffffffffffff1673ffffffffffffffffffffffffffffffffffffffff1673ffffffffffffffffffffffffffffffffffffffff16815260200160018201548152602001600282015481526020016003820160009054906101000a900460ff16151515158152505090506000816040015142610ae39190611128565b905060006303220080600a838560200151610afe9190610e6a565b610b089190610e6a565b610b12919061108b565b9050809350505050919050565b6000819050919050565b610b3281610b1f565b82525050565b6000604082019050610b4d6000830185610b29565b610b5a6020830184610b29565b9392505050565b6000602082019050610b766000830184610b29565b92915050565b600080fd5b610b8a81610b1f565b8114610b9557600080fd5b50565b600081359050610ba781610b81565b92915050565b600060208284031215610bc357610bc2610b7c565b5b6000610bd184828501610b98565b91505092915050565b600082825260208201905092915050565b7f596f7520617265206e6f7420746865206f776e65720000000000000000000000600082015250565b6000610c21601583610bda565b9150610c2c82610beb565b602082019050919050565b60006020820190508181036000830152610c5081610c14565b9050919050565b7f43616e2774206465706f736974207a65726f20696e746f2074686520706f6f6c600082015250565b6000610c8d602083610bda565b9150610c9882610c57565b602082019050919050565b60006020820190508181036000830152610cbc81610c80565b9050919050565b7f4e487b7100000000000000000000000000000000000000000000000000000000600052601160045260246000fd5b6000610cfd82610b1f565b9150610d0883610b1f565b9250828201905080821115610d2057610d1f610cc3565b5b92915050565b7f41646472657373207a65726f2064657465637465640000000000000000000000600082015250565b6000610d5c601583610bda565b9150610d6782610d26565b602082019050919050565b60006020820190508181036000830152610d8b81610d4f565b9050919050565b7f4475726174696f6e2063616e27742062652073657420746f207a65726f000000600082015250565b6000610dc8601d83610bda565b9150610dd382610d92565b602082019050919050565b60006020820190508181036000830152610df781610dbb565b9050919050565b7f596f752063616e206f6e6c79207374616b65206f6e6365000000000000000000600082015250565b6000610e34601783610bda565b9150610e3f82610dfe565b602082019050919050565b60006020820190508181036000830152610e6381610e27565b9050919050565b6000610e7582610b1f565b9150610e8083610b1f565b9250828202610e8e81610b1f565b91508282048414831517610ea557610ea4610cc3565b5b5092915050565b7f43616e2774207769746864726177207a65726f00000000000000000000000000600082015250565b6000610ee2601383610bda565b9150610eed82610eac565b602082019050919050565b60006020820190508181036000830152610f1181610ed5565b9050919050565b7f5374616b696e6720706572696f64206e6f7420636f6d706c6574656400000000600082015250565b6000610f4e601c83610bda565b9150610f5982610f18565b602082019050919050565b60006020820190508181036000830152610f7d81610f41565b9050919050565b7f457468657220616c72656164792077697468647261776e000000000000000000600082015250565b6000610fba601783610bda565b9150610fc582610f84565b602082019050919050565b60006020820190508181036000830152610fe981610fad565b9050919050565b7f496e73756666696369656e74207374616b656420616d6f756e74000000000000600082015250565b6000611026601a83610bda565b915061103182610ff0565b602082019050919050565b6000602082019050818103600083015261105581611019565b9050919050565b7f4e487b7100000000000000000000000000000000000000000000000000000000600052601260045260246000fd5b600061109682610b1f565b91506110a183610b1f565b9250826110b1576110b061105c565b5b828204905092915050565b7f496e73756666696369656e742072657761726420706f6f6c0000000000000000600082015250565b60006110f2601883610bda565b91506110fd826110bc565b602082019050919050565b60006020820190508181036000830152611121816110e5565b9050919050565b600061113382610b1f565b915061113e83610b1f565b925082820390508181111561115657611155610cc3565b5b92915050565b600081905092915050565b50565b600061117760008361115c565b915061118282611167565b600082019050919050565b60006111988261116a565b9150819050919050565b7f4661696c656420746f2077697468647261772045746865720000000000000000600082015250565b60006111d8601883610bda565b91506111e3826111a2565b602082019050919050565b60006020820190508181036000830152611207816111cb565b905091905056fea26469706673582212202d959ea89b3c31641cb509981667b11f842102ec285fdf9d734348f2702f7d4e64736f6c63430008180033",
  "linkReferences": {},
  "deployedLinkReferences": {}
}