{
  "_format": "hh-sol-artifact-1",
  "contractName": "StakeERC20",
  "sourceName": "contracts/StakeERC20.sol",
  "abi": [
    {
      "inputs": [
        {
          "internalType": "address",
          "name": "_tokenAddress",
          "type": "address"
        }
      ],
      "stateMutability": "nonpayable",
      "type": "constructor"
    },
    {
      "anonymous": false,
      "inputs": [
        {
          "indexed": true,
          "internalType": "address",
          "name": "_user",
          "type": "address"
        },
        {
          "indexed": true,
          "internalType": "uint256",
          "name": "_amount",
          "type": "uint256"
        }
      ],
      "name": "DepositSuccessful",
      "type": "event"
    },
    {
      "anonymous": false,
      "inputs": [
        {
          "indexed": true,
          "internalType": "address",
          "name": "_user",
          "type": "address"
        },
        {
          "indexed": true,
          "internalType": "uint256",
          "name": "_amount",
          "type": "uint256"
        },
        {
          "indexed": false,
          "internalType": "uint256",
          "name": "duration",
          "type": "uint256"
        }
      ],
      "name": "StakeSuccessful",
      "type": "event"
    },
    {
      "anonymous": false,
      "inputs": [
        {
          "indexed": true,
          "internalType": "address",
          "name": "_user",
          "type": "address"
        },
        {
          "indexed": false,
          "internalType": "address",
          "name": "_to",
          "type": "address"
        },
        {
          "indexed": true,
          "internalType": "uint256",
          "name": "_amount",
          "type": "uint256"
        }
      ],
      "name": "TransferSuccessful",
      "type": "event"
    },
    {
      "anonymous": false,
      "inputs": [
        {
          "indexed": true,
          "internalType": "address",
          "name": "_user",
          "type": "address"
        },
        {
          "indexed": true,
          "internalType": "uint256",
          "name": "_amount",
          "type": "uint256"
        }
      ],
      "name": "WithdrawSuccessful",
      "type": "event"
    },
    {
      "inputs": [
        {
          "internalType": "address",
          "name": "_user",
          "type": "address"
        }
      ],
      "name": "getAnyBalance",
      "outputs": [
        {
          "internalType": "uint256",
          "name": "",
          "type": "uint256"
        }
      ],
      "stateMutability": "view",
      "type": "function"
    },
    {
      "inputs": [],
      "name": "getContractBalance",
      "outputs": [
        {
          "internalType": "uint256",
          "name": "",
          "type": "uint256"
        }
      ],
      "stateMutability": "view",
      "type": "function"
    },
    {
      "inputs": [],
      "name": "myBalance",
      "outputs": [
        {
          "internalType": "uint256",
          "name": "",
          "type": "uint256"
        }
      ],
      "stateMutability": "view",
      "type": "function"
    },
    {
      "inputs": [],
      "name": "owner",
      "outputs": [
        {
          "internalType": "address",
          "name": "",
          "type": "address"
        }
      ],
      "stateMutability": "view",
      "type": "function"
    },
    {
      "inputs": [
        {
          "internalType": "uint256",
          "name": "_amount",
          "type": "uint256"
        },
        {
          "internalType": "uint256",
          "name": "_durationInMinutes",
          "type": "uint256"
        }
      ],
      "name": "stakingERC20",
      "outputs": [],
      "stateMutability": "nonpayable",
      "type": "function"
    },
    {
      "inputs": [
        {
          "internalType": "uint256",
          "name": "_amount",
          "type": "uint256"
        }
      ],
      "name": "stakingRewardPool",
      "outputs": [],
      "stateMutability": "nonpayable",
      "type": "function"
    },
    {
      "inputs": [],
      "name": "testZeroAddressCheck",
      "outputs": [],
      "stateMutability": "view",
      "type": "function"
    },
    {
      "inputs": [],
      "name": "tokenAddress",
      "outputs": [
        {
          "internalType": "address",
          "name": "",
          "type": "address"
        }
      ],
      "stateMutability": "view",
      "type": "function"
    },
    {
      "inputs": [
        {
          "internalType": "uint256",
          "name": "_amount",
          "type": "uint256"
        }
      ],
      "name": "withdrawStakedERC20",
      "outputs": [],
      "stateMutability": "nonpayable",
      "type": "function"
    }
  ],
  "bytecode": "0x60806040523480156200001157600080fd5b5060405162001b1638038062001b16833981810160405281019062000037919062000129565b336000806101000a81548173ffffffffffffffffffffffffffffffffffffffff021916908373ffffffffffffffffffffffffffffffffffffffff16021790555080600160006101000a81548173ffffffffffffffffffffffffffffffffffffffff021916908373ffffffffffffffffffffffffffffffffffffffff160217905550506200015b565b600080fd5b600073ffffffffffffffffffffffffffffffffffffffff82169050919050565b6000620000f182620000c4565b9050919050565b6200010381620000e4565b81146200010f57600080fd5b50565b6000815190506200012381620000f8565b92915050565b600060208284031215620001425762000141620000bf565b5b6000620001528482850162000112565b91505092915050565b6119ab806200016b6000396000f3fe608060405234801561001057600080fd5b50600436106100935760003560e01c80638da5cb5b116100665780638da5cb5b1461010c5780639d76ea581461012a578063a11b438814610148578063c9116b6914610164578063ec86b2f71461018257610093565b80632cd59e0c146100985780632e9ad467146100b45780636b1d3e40146100e45780636f9fb98a146100ee575b600080fd5b6100b260048036038101906100ad919061105c565b61019e565b005b6100ce60048036038101906100c991906110e7565b6104be565b6040516100db9190611123565b60405180910390f35b6100ec610507565b005b6100f6610578565b6040516101039190611123565b60405180910390f35b61011461061b565b604051610121919061114d565b60405180910390f35b61013261063f565b60405161013f919061114d565b60405180910390f35b610162600480360381019061015d919061105c565b610665565b005b61016c610a79565b6040516101799190611123565b60405180910390f35b61019c60048036038101906101979190611168565b610ac0565b005b60008054906101000a900473ffffffffffffffffffffffffffffffffffffffff1673ffffffffffffffffffffffffffffffffffffffff163373ffffffffffffffffffffffffffffffffffffffff161461022c576040517f08c379a000000000000000000000000000000000000000000000000000000000815260040161022390611205565b60405180910390fd5b600073ffffffffffffffffffffffffffffffffffffffff163373ffffffffffffffffffffffffffffffffffffffff160361029b576040517f08c379a000000000000000000000000000000000000000000000000000000000815260040161029290611271565b60405180910390fd5b600081116102de576040517f08c379a00000000000000000000000000000000000000000000000000000000081526004016102d5906112dd565b60405180910390fd5b6000600160009054906101000a900473ffffffffffffffffffffffffffffffffffffffff1673ffffffffffffffffffffffffffffffffffffffff166370a08231336040518263ffffffff1660e01b815260040161033b919061114d565b602060405180830381865afa158015610358573d6000803e3d6000fd5b505050506040513d601f19601f8201168201806040525081019061037c9190611312565b9050818110156103c1576040517f08c379a00000000000000000000000000000000000000000000000000000000081526004016103b89061138b565b60405180910390fd5b600160009054906101000a900473ffffffffffffffffffffffffffffffffffffffff1673ffffffffffffffffffffffffffffffffffffffff166323b872dd3330856040518463ffffffff1660e01b8152600401610420939291906113ab565b6020604051808303816000875af115801561043f573d6000803e3d6000fd5b505050506040513d601f19601f82011682018060405250810190610463919061141a565b5081600260003073ffffffffffffffffffffffffffffffffffffffff1673ffffffffffffffffffffffffffffffffffffffff16815260200190815260200160002060008282546104b39190611476565b925050819055505050565b6000600260008373ffffffffffffffffffffffffffffffffffffffff1673ffffffffffffffffffffffffffffffffffffffff168152602001908152602001600020549050919050565b600073ffffffffffffffffffffffffffffffffffffffff163373ffffffffffffffffffffffffffffffffffffffff1603610576576040517f08c379a000000000000000000000000000000000000000000000000000000000815260040161056d906114f6565b60405180910390fd5b565b6000600160009054906101000a900473ffffffffffffffffffffffffffffffffffffffff1673ffffffffffffffffffffffffffffffffffffffff166370a08231306040518263ffffffff1660e01b81526004016105d5919061114d565b602060405180830381865afa1580156105f2573d6000803e3d6000fd5b505050506040513d601f19601f820116820180604052508101906106169190611312565b905090565b60008054906101000a900473ffffffffffffffffffffffffffffffffffffffff1681565b600160009054906101000a900473ffffffffffffffffffffffffffffffffffffffff1681565b600073ffffffffffffffffffffffffffffffffffffffff163373ffffffffffffffffffffffffffffffffffffffff16036106d4576040517f08c379a00000000000000000000000000000000000000000000000000000000081526004016106cb90611271565b60405180910390fd5b60008111610717576040517f08c379a000000000000000000000000000000000000000000000000000000000815260040161070e90611562565b60405180910390fd5b6000600360003373ffffffffffffffffffffffffffffffffffffffff1673ffffffffffffffffffffffffffffffffffffffff168152602001908152602001600020905080600201544210156107a1576040517f08c379a0000000000000000000000000000000000000000000000000000000008152600401610798906115ce565b60405180910390fd5b8060030160009054906101000a900460ff16156107f3576040517f08c379a00000000000000000000000000000000000000000000000000000000081526004016107ea9061163a565b60405180910390fd5b818160010154101561083a576040517f08c379a0000000000000000000000000000000000000000000000000000000008152600401610831906116a6565b60405180910390fd5b600061084533610eff565b905060008260010154848361085a91906116c6565b6108649190611737565b8461086f9190611476565b905080600260003073ffffffffffffffffffffffffffffffffffffffff1673ffffffffffffffffffffffffffffffffffffffff1681526020019081526020016000205410156108f3576040517f08c379a00000000000000000000000000000000000000000000000000000000081526004016108ea906117b4565b60405180910390fd5b8383600101600082825461090791906117d4565b9250508190555060008360010154036109385760018360030160006101000a81548160ff0219169083151502179055505b80600260003073ffffffffffffffffffffffffffffffffffffffff1673ffffffffffffffffffffffffffffffffffffffff168152602001908152602001600020600082825461098791906117d4565b92505081905550600160009054906101000a900473ffffffffffffffffffffffffffffffffffffffff1673ffffffffffffffffffffffffffffffffffffffff1663a9059cbb33836040518363ffffffff1660e01b81526004016109eb929190611808565b6020604051808303816000875af1158015610a0a573d6000803e3d6000fd5b505050506040513d601f19601f82011682018060405250810190610a2e919061141a565b50803373ffffffffffffffffffffffffffffffffffffffff167f84e742a3ea03623687a5febaa797636d728230721d4b3d1405d19fbbc16298d960405160405180910390a350505050565b6000600260003373ffffffffffffffffffffffffffffffffffffffff1673ffffffffffffffffffffffffffffffffffffffff16815260200190815260200160002054905090565b600073ffffffffffffffffffffffffffffffffffffffff163373ffffffffffffffffffffffffffffffffffffffff1603610b2f576040517f08c379a0000000000000000000000000000000000000000000000000000000008152600401610b2690611271565b60405180910390fd5b60008211610b72576040517f08c379a0000000000000000000000000000000000000000000000000000000008152600401610b699061187d565b60405180910390fd5b60008111610bb5576040517f08c379a0000000000000000000000000000000000000000000000000000000008152600401610bac906118e9565b60405180910390fd5b6000600160009054906101000a900473ffffffffffffffffffffffffffffffffffffffff1673ffffffffffffffffffffffffffffffffffffffff166370a08231336040518263ffffffff1660e01b8152600401610c12919061114d565b602060405180830381865afa158015610c2f573d6000803e3d6000fd5b505050506040513d601f19601f82011682018060405250810190610c539190611312565b905082811015610c98576040517f08c379a0000000000000000000000000000000000000000000000000000000008152600401610c8f9061138b565b60405180910390fd5b6000600360003373ffffffffffffffffffffffffffffffffffffffff1673ffffffffffffffffffffffffffffffffffffffff16815260200190815260200160002090506000816001015414610d22576040517f08c379a0000000000000000000000000000000000000000000000000000000008152600401610d1990611955565b60405180910390fd5b6000603c84610d3191906116c6565b9050600160009054906101000a900473ffffffffffffffffffffffffffffffffffffffff1673ffffffffffffffffffffffffffffffffffffffff166323b872dd3330886040518463ffffffff1660e01b8152600401610d92939291906113ab565b6020604051808303816000875af1158015610db1573d6000803e3d6000fd5b505050506040513d601f19601f82011682018060405250810190610dd5919061141a565b50338260000160006101000a81548173ffffffffffffffffffffffffffffffffffffffff021916908373ffffffffffffffffffffffffffffffffffffffff1602179055508482600101819055508042610e2e9190611476565b826002018190555060008260030160006101000a81548160ff02191690831515021790555084600260003373ffffffffffffffffffffffffffffffffffffffff1673ffffffffffffffffffffffffffffffffffffffff1681526020019081526020016000206000828254610ea29190611476565b92505081905550843373ffffffffffffffffffffffffffffffffffffffff167f37abc30d0dfe643dbd2e840e90b3f428f4bba7e3ef3d401fd00295aba923569786604051610ef09190611123565b60405180910390a35050505050565b600080600360008473ffffffffffffffffffffffffffffffffffffffff1673ffffffffffffffffffffffffffffffffffffffff1681526020019081526020016000206040518060800160405290816000820160009054906101000a900473ffffffffffffffffffffffffffffffffffffffff1673ffffffffffffffffffffffffffffffffffffffff1673ffffffffffffffffffffffffffffffffffffffff16815260200160018201548152602001600282015481526020016003820160009054906101000a900460ff16151515158152505090506000816040015142610fe591906117d4565b905060006303220080600a83856020015161100091906116c6565b61100a91906116c6565b6110149190611737565b9050809350505050919050565b600080fd5b6000819050919050565b61103981611026565b811461104457600080fd5b50565b60008135905061105681611030565b92915050565b60006020828403121561107257611071611021565b5b600061108084828501611047565b91505092915050565b600073ffffffffffffffffffffffffffffffffffffffff82169050919050565b60006110b482611089565b9050919050565b6110c4816110a9565b81146110cf57600080fd5b50565b6000813590506110e1816110bb565b92915050565b6000602082840312156110fd576110fc611021565b5b600061110b848285016110d2565b91505092915050565b61111d81611026565b82525050565b60006020820190506111386000830184611114565b92915050565b611147816110a9565b82525050565b6000602082019050611162600083018461113e565b92915050565b6000806040838503121561117f5761117e611021565b5b600061118d85828601611047565b925050602061119e85828601611047565b9150509250929050565b600082825260208201905092915050565b7f596f7520617265206e6f7420746865206f776e65720000000000000000000000600082015250565b60006111ef6015836111a8565b91506111fa826111b9565b602082019050919050565b6000602082019050818103600083015261121e816111e2565b9050919050565b7f5a65726f20616464726573732064657465637465640000000000000000000000600082015250565b600061125b6015836111a8565b915061126682611225565b602082019050919050565b6000602082019050818103600083015261128a8161124e565b9050919050565b7f5a65726f2063616e2774206265206465706f7369746564000000000000000000600082015250565b60006112c76017836111a8565b91506112d282611291565b602082019050919050565b600060208201905081810360008301526112f6816112ba565b9050919050565b60008151905061130c81611030565b92915050565b60006020828403121561132857611327611021565b5b6000611336848285016112fd565b91505092915050565b7f496e73756666696369656e742066756e64730000000000000000000000000000600082015250565b60006113756012836111a8565b91506113808261133f565b602082019050919050565b600060208201905081810360008301526113a481611368565b9050919050565b60006060820190506113c0600083018661113e565b6113cd602083018561113e565b6113da6040830184611114565b949350505050565b60008115159050919050565b6113f7816113e2565b811461140257600080fd5b50565b600081519050611414816113ee565b92915050565b6000602082840312156114305761142f611021565b5b600061143e84828501611405565b91505092915050565b7f4e487b7100000000000000000000000000000000000000000000000000000000600052601160045260246000fd5b600061148182611026565b915061148c83611026565b92508282019050808211156114a4576114a3611447565b5b92915050565b7f61646472657373207a65726f20666f756e640000000000000000000000000000600082015250565b60006114e06012836111a8565b91506114eb826114aa565b602082019050919050565b6000602082019050818103600083015261150f816114d3565b9050919050565b7f5a65726f2063616e27742062652077697468647261776e000000000000000000600082015250565b600061154c6017836111a8565b915061155782611516565b602082019050919050565b6000602082019050818103600083015261157b8161153f565b9050919050565b7f5374616b696e6720706572696f64206e6f7420636f6d706c6574656400000000600082015250565b60006115b8601c836111a8565b91506115c382611582565b602082019050919050565b600060208201905081810360008301526115e7816115ab565b9050919050565b7f455243323020616c72656164792077697468647261776e000000000000000000600082015250565b60006116246017836111a8565b915061162f826115ee565b602082019050919050565b6000602082019050818103600083015261165381611617565b9050919050565b7f496e73756666696369656e74207374616b656420616d6f756e74000000000000600082015250565b6000611690601a836111a8565b915061169b8261165a565b602082019050919050565b600060208201905081810360008301526116bf81611683565b9050919050565b60006116d182611026565b91506116dc83611026565b92508282026116ea81611026565b9150828204841483151761170157611700611447565b5b5092915050565b7f4e487b7100000000000000000000000000000000000000000000000000000000600052601260045260246000fd5b600061174282611026565b915061174d83611026565b92508261175d5761175c611708565b5b828204905092915050565b7f496e73756666696369656e742072657761726420706f6f6c0000000000000000600082015250565b600061179e6018836111a8565b91506117a982611768565b602082019050919050565b600060208201905081810360008301526117cd81611791565b9050919050565b60006117df82611026565b91506117ea83611026565b925082820390508181111561180257611801611447565b5b92915050565b600060408201905061181d600083018561113e565b61182a6020830184611114565b9392505050565b7f5a65726f2063616e2774206265207374616b6564000000000000000000000000600082015250565b60006118676014836111a8565b915061187282611831565b602082019050919050565b600060208201905081810360008301526118968161185a565b9050919050565b7f4475726174696f6e2063616e27742062652073657420746f207a65726f000000600082015250565b60006118d3601d836111a8565b91506118de8261189d565b602082019050919050565b60006020820190508181036000830152611902816118c6565b9050919050565b7f596f752063616e206f6e6c79207374616b65206f6e6365000000000000000000600082015250565b600061193f6017836111a8565b915061194a82611909565b602082019050919050565b6000602082019050818103600083015261196e81611932565b905091905056fea2646970667358221220f6789be5515e1c7704b80cadd117eff5c46c6fe1292bdfda92fc75f4767bcc1d64736f6c63430008180033",
  "linkReferences": {},
  "deployedLinkReferences": {}
}